:03000000021514D2
:0C151400787FE4F6D8FD75813502155B88
:1015A00020200020202020003031323334353637DF
:1015B00038394D4F4E545545574544544855465279
:0D15C0004953415453554E2D2D2D4C4E5284
:1016CB0002210014C101C104C182C180C105C10343
:0316DB00012F01DB
:100976005389F0438901758C3C758AB0D2A9D28817
:10098600D28AD2A8D2AAD2AFD28C1216B512167EAD
:10099600E52FB401047F84802BE52FB402047F8702
:1009A6008022E52FB403047F8A8019E52FB4040D55
:1009B6007FCB1216247BFF7A1579A38022E52FB40C
:1009C600050D7FC81216247BFF7A1579A08010E5E5
:1009D6002FB406107FC51216247BFF7A1579A01254
:1009E60015CD8036AB2AAA29AD28AF271214578F0A
:1009F60026750C00750D00750E2B750F0075100011
:100A060075112C75120075130075142DAB2AAA29C1
:100A1600AD28AF27120B80020AF07FC87E0012169F
:100A26005EA2B4B3501E7F647E0012165EAF2FEF37
:100A36003395E0FEEF2401FFE43EFE7C007D0712C5
:100A46000F398D2FAE29AF2A7C007D04120F39EDA8
:100A56004C7013E528B4020ED3E5276480949D40BC
:100A66000575271D803AED4C6013E528B4020ED3B8
:100A7600E5276480949C400575271C8023E528643F
:100A8600046011E5286406600BE52864096005E545
:100A960028B40B0CD3E5276480949E400375271E6B
:100AA600D206AB25AD24AF231211CD85290B852A9D
:100AB6000CAB28AD277F07120CFA7FC87E001216F2
:100AC6005EA2B4B340030209967F647E0012165EEE
:100AD600AF2FEF3395E0FEEF2401FFE43EFE7C00EE
:100AE6007D07120F398D2F020996A2029206AB25B9
:100AF600AD24AF231211CD85290B852A0CAB28AD69
:100B060027AF26120CFAA201300401B350141212B8
:100B1600CAA2019204A2029206AB25AD24AF23120B
:100B260011CDA202300001B35011A2029200A2021E
:100B36009206AB25AD24AF231211CDA205300301D9
:100B4600B35026A2059203A205B3500E85290B8544
:100B56002A0CAB28AD27AF26800C852D0B852E0CD5
:100B6600AB2CAD2B7F08120CFAA2B4B350987F645D
:0A0B76007E0012165E052F0209969C
:03000B0002163E9C
:10163E00C0E0758C3C758AB0E5221522700215212A
:10164E00E52245217007F521752214B201D0E03252
:030003000210BD2B
:1010BD00C0E0C0F0C083C082C0D075D000C000C0F9
:1010CD0001C002C003C004C005C006C0077F647E16
:1010DD000012165EE52F7005B2020211B2E52FB4B3
:1010ED000116D3E523648094804006E52314FF8028
:1010FD00027F178F230211B2E52FB40216D3E52418
:10110D00648094804006E52414FF80027F3B8F2489
:10111D000211B2E52FB40315D3E525648094804008
:10112D0006E52514FF80027F3B8F258078E52FB4DF
:10113D00040AE52A152A706D15298069E52FB40575
:10114D0015D3E528648094814006E52814FF8002BC
:10115D007F0C8F28804FE52764017047AE29AF2A99
:10116D00FC7D04120F39ED4C700AE528B4020575AB
:10117D00271D8031ED4C600AE528B4020575271C4A
:10118D008023E52864046011E5286406600BE528DA
:10119D0064096005E528B40B0575271E80077527C2
:1011AD001F80021527D007D006D005D004D003D05C
:1011BD0002D001D000D0D0D082D083D0F0D0E03298
:03001300020F9A3F
:100F9A00C0E0C0F0C083C082C0D075D000C000C01D
:100FAA0001C002C003C004C005C006C0077F647E3A
:100FBA000012165EE52F7005B2050210A2E52FB4E5
:100FCA000116C3E523648094975006E52304FF8045
:100FDA00027F008F230210A2E52FB40216C3E52474
:100FEA00648094BB5006E52404FF80027F008F24AE
:100FFA000210A2E52FB40316C3E525648094BB5002
:10100A0006E52504FF80027F008F250210A2E52F46
:10101A00B4040A052AE52A70020529807BE52FB463
:10102A000515C3E5286480948C5006E52804FF80E2
:10103A00027F018F288061AE29AF2A7C007D0412CD
:10104A000F39ED4C7010E528B4020BC3E527648014
:10105A00949D4002803BED4C6010E528B4020BC31E
:10106A00E5276480949C40028027E5286404601187
:10107A00E5286406600BE52864096005E528B40BD9
:10108A000BC3E5276480949E40028005E527B41FC0
:10109A000575270180020527D007D006D005D004A0
:1010AA00D003D002D001D000D0D0D082D083D0F0EB
:0310BA00D0E03251
:1016B500E4F523F524F525F526752701752801752B
:0616C5002907752AE2224C
:1012CA000525E525643C60030213960524F525E50A
:1012DA0024643C60030213960523F524E52364186D
:1012EA00600302139605260527F523E526B40703AE
:1012FA00E4F526E5286402701EAE29AF2AFC7D04B7
:10130A00120F39ED4C7008E527641E70598052E5BA
:10131A0027641D7051804AE528B40C16E52764201D
:10132A007044752701752801052AE52A70380529B0
:10133A008034E5286401601DE52864036017E52808
:10134A0064056011E5286407600BE52864086005F8
:10135A00E528B40A07E527B4200C8005E527B41F61
:10136A00057527010528750C00750D00750E2B757E
:10137A000F0075100075112C751200751300751485
:0D138A002DAB2AAA29AD28AF27120B802217
:061457008D088A098B0AD2
:10145D00EF3395E0FEEF24FFFFEE34FF8F82F5832F
:10146D007B01C3E5086480F8EB6480985051EB6410
:10147D0001601CEB64036017EB64056012EB6407FD
:10148D00600DEB64086008EB640A6003BB0C047428
:10149D001F8020BB021BAE09AF0A7C007D04120F1A
:1014AD0039ED4C7004741D800AED4C600F741C8076
:1014BD0002741E2582F582E43583F5830B80A3E546
:1014CD000A242FFFE50934F8FE7C007D04120F3944
:1014DD00AA06AB07AE09AF0A7C017D6D120ED2EFE5
:1014ED002BFFEE3ACF2471CF34DCFEEF2582F5824F
:1014FD00EE3583F583E5822405FFE43583FE1C7DFF
:06150D0007120EE4AF0519
:0115130022B5
:1015F800303132333435363738394D4F4E545545FE
:1016080057454454485546524953415453554E2D15
:051618002D2D4C4E5287
:10165E00E4FDFCC3ED9FEC9E5015E4FBFA0BBB00C2
:0F166E00010AEB647B4A70F50DBD00010C80E4AE
:01167D00224A
:07161D007E0012165E7F3013
:10162400C2B08FA0D2B1C2B1EFC3940250047F0202
:0A16340080027F017E0012165E2284
:0F16DF00D2B08FA0D2B1C2B17F017E0002165EE1
:0615CD008B1B8A1C891D26
:1015D300E4F51EF51FAB1BAA1CA91D851F82851EE2
:1015E30083120E93FF600D1216DF051FE51F70E5D2
:0415F300051E80E170
:0115F70022D1
:10167E007F301216247F0512161D7F0112161D7F54
:0E168E00381216247F011216247F0C02162437
:02169C00AE0797
:10169E007F80EE30E009ED540F444042078005EDA7
:0716AE00540F42070216244D
:041397008E308F31D4
:10139B00C3E5319464E5306480948050307C007DEB
:1013AB000A120F3974F82FF58274153EF583E49306
:1013BB00F532AE30AF317C007D0A120F3974F82D47
:1013CB00F58274153CF583E493F5338075AE30AF3D
:1013DB00317C037DE8120F3974F82FF58274153EBA
:1013EB00F583E493F532AE30AF317C037DE8120F19
:1013FB0039AA04AB057D647C00AF03AE02120F3932
:10140B0074F82FF58274153EF583E493F533AE3003
:10141B00AF317C007D64120F397E007F0ACFCDCFB8
:10142B00CECCCE120F3974F82FF58274153EF5839E
:10143B00E493F53474F82BF58274153AF583E49341
:0B144B00F5357B007A0079321215CDD8
:011456002273
:0611CD008D088B09A90743
:1011D3007F84121624A206B35030C3E96480948C32
:1011E3005005751261800375127075136DC3E96440
:1011F30080948D400ED3E964809497500674F4294B
:10120300F9800DE9700A790C800675122075132098
:10121300E975F00A120E58FF3395E0FE74F82FF5C6
:101223008274153EF583E493F50AE975F00A120E0C
:1012330058AFF0EF3395E0FE74F82FF58274153E46
:10124300F583E493F50B750C3AE50875F00A120E75
:1012530058FF3395E0FE74F82FF58274153EF5833D
:10126300E493F50DE50875F00A120E58AFF0EF336D
:1012730095E0FE74F82FF58274153EF583E493F53B
:101283000E750F3AE50975F00A120E58FF3395E013
:10129300FE74F82FF58274153EF583E493F510E59B
:1012A3000975F00A120E58AFF0EF3395E0FE74F8AB
:1012B3002FF58274153EF583E493F511E4F514FBE1
:0712C3007A00790A0215CD43
:060CFA008D098B0AA90719
:100D0000E4F51B7FC1121624E9FF3395E0FE90162F
:100D10000275F003EF120F8EEE75F003A42583F534
:100D200083E493F50D90160375F003EF120F8EEE2A
:100D300075F003A42583F583E493F50EEF3395E076
:100D4000FE90160475F003EF120F8EEE75F003A4FB
:100D50002583F583E493F50F751020E50975F00AF6
:100D6000120E58FF3395E0FE74F82FF58274153E8D
:100D7000F583E493F511E50975F00A120E58AFF00A
:100D8000EF3395E0FE74F82FF58274153EF583E499
:100D900093F51275132FE50A75F00A120E58FF33FA
:100DA00095E0FE74F82FF58274153EF583E493F513
:100DB00014E50A75F00A120E58AFF0EF3395E0FE15
:100DC00074F82FF58274153EF583E493F5157516C6
:100DD0002FAE0BAF0C7C037DE8120F3974F82FF5A2
:100DE0008274153EF583E493F517AE0BAF0C7C03CC
:100DF0007DE8120F397E007F64CFCDCFCECCCE12EE
:100E00000F3974F82FF58274153EF583E493F518C5
:100E1000AE0BAF0C7C007D64120F397E007F0ACFD1
:100E2000CDCFCECCCE120F3974F82FF58274153E8B
:100E3000F583E493F519AE0BAF0C7C007D0A120F1D
:100E40003974F82DF58274153CF583E493F51A7B1B
:080E5000007A00790D0215CDB6
:100016001B79099A1A3A125B187B109D1ABE18E2D0
:100026001304192413461B66198702291A471068F8
:100036001A89108A1AAB18CC10EE1B0F11301B51FF
:10004600197203941A3212531873129518B51AD7E7
:1000560010F81919133B195B1B7D00211A3D125E1E
:10006600188112A218C21AE4110519261348196834
:100076001B8A082B1A4B104C1A6D128E18AE1AD00A
:1000860010F11B1211331B541975039718351257AB
:100096001877129918B91ADB12FC191C133E19614C
:1000A6001982022418421264188410A61AC71AE884
:1000B60010E91B0A132B194B1B6D018E1A2D104EBE
:1000C6001A6F109018B11AD310F41B1513361B565D
:1000D60019770B991A381059187A129C18BC18E11E
:1000E60011021B2311441B651B8602271845126744
:1000F600188712A918A918CB12ED190D132F194F2D
:100106001B7103921A3010511A7210931AB418D533
:1001160010F71B1811391B5A197B039D1A3B105CEB
:100126001A7D129E18C118E211041B2511461B6781
:1001360019880A2A1849126B1A8B108C1AAD18CE18
:1001460012F01910133219521B7401951A341055F6
:100156001A7610971AB81AD910FA1B1B113C1B5D98
:1001660019810022184110621A8310A41AC518E6D4
:1001760013081B2811291B4A196B038D182B124DC6
:10018600186D108F1AB018D112F31B1313341954AB
:100196001B7609971A3710581A79109A18BB1ADD68
:1001A60011011B2111421B631B8400251A44106593
:1001B6001A8610A718C81ACA10EB1B0C112D1B4E55
:1001C6001B6F0390182E12501870129218B218D482
:1001D60012F6191611381B591B7A039B1839125B34
:1001E6001A7B109C1ABD18E11303192311451B66CF
:1001F6001B8708281A4812691A89108A1AAB18CC64
:1002060010EE1B0F113019511B7303941832125440
:100216001A7410951AB618D712F91919133B195BE7
:100226001B7D00211A3D10611A8112A31AC318E41E
:1002360013061926134819681B8A002B1A4A104BF5
:10024600186C128E1AAE18CF12F11B1111321B53F5
:1002560019740B9618351257187710991ABA18DBB5
:1002660012FD1B1D11411B611982022418421264E2
:10027600188410A61AC718C812EA190A132C1B4CA0
:100286001B6D018E1A2D104E1A6F109018B11AD3CD
:1002960010F4191513371B571B7801991A38125980
:1002A6001879129B18BB18DD1301192213441B641D
:1002B60019850A271A461267188712A918A918CB92
:1002C60012ED190D112F1B501B7101921A3112528A
:1002D6001872129418B41AD610F71B181139195A35
:1002E6001B7C019D1A3C125D187D12A11AC11AE3EE
:1002F60011041B2511461B671988002A1A49106A22
:100306001A6B128C18AC1ACE12EF190F1331195141
:100316001B730994183412561876129818B81ADAFC
:1003260012FB191B133D1B5D198100221841106237
:10033600188312A518C51AE711081B29134A1B6A48
:10034600196B038D182B124D186D108F1AB018D11A
:1003560010F31B1413351B55197603981A361057CC
:100366001A78109918BA1ADC10FD1921134219626D
:100376001B840A251A4410651A8610A718C81ACABB
:1003860010EB190C132E194E1B7003911A2F1050D7
:100396001A71129218B218D412F6191611381B597E
:1003A600197A039C1A3A105B1A7C129D18BD1AE141
:1003B6001303192311451B66198702291A4710686A
:1003C6001A8912AA18AA1ACC10ED1B0E112F195051
:1003D6001B7209931A3310541A75129618B61AD846
:1003E60010F91B1A133B195B1B7D0021183D126186
:1003F6001A8210A31AC418E513071B271348196895
:100406001B8A002B1A4A104B186C128E18AE1AD083
:1004160010F11B12133319531B7503961834125619
:10042600187610981AB918DA10FC1B1D133E1961BC
:100436001B820A2318421264188410A61AC718E8E9
:1004460010EA1B0B112C1B4D1B6E038F1A2D104E21
:100456001A6F109018B11AD310F4191513371957CB
:100466001B79039A1A3810591A7A109B1ABC18DD90
:1004760013011922134419641B86022718451267B3
:100486001A8710A81AA918CA12EC190C112E1B4F9C
:1004960019700B92183112531A7310941AB51AD692
:1004A60010F71B181139195A1B7C019D1A3C105D57
:1004B6001A7E12A21AC218E31305192513471B67E1
:1004C6001988002A1A49106A1A6B108C1AAD18CEB0
:1004D60012F01B1011311B521B7301941833125565
:1004E6001875129718B718D912FB1B1B113C1B5D08
:1004F6001B7E0A2118411062188312A518C518E739
:1005060013091909132B1B4B1B6C018D1A2C124D49
:10051600186D108F1AB018D110F31B1411351B5615
:100526001B770398183612581878129A18BA1ADCDC
:1005360010FD192111421B631B8400251A44126504
:10054600188512A718C71AC910EA190B132D194DC9
:100556001B6F09901A301251187112931AB318D4DE
:1005660012F6191611381B59197A039C183A125C9F
:10057600187C129E1ABE1AE211031B2411451B6633
:1005860019870229184712691889128B18AB1ACDD8
:1005960012EE190E133019501B7201931A321053B2
:1005A6001A7410951AB618D712F91919133B1B5B52
:1005B600197C0B9E183D12611A8210A318C41AE604
:1005C60011071B2813491B69198A022C1A4A106B3A
:1005D600186C128E18AE18D012F2191213341B545E
:1005E6001B7501961A351256187610981AB918DA2C
:1005F60010FC1B1D11411B611B8302241A42106350
:100606001A8410A51AC618E710E91B0A112B1B4CF1
:10061600196D0B8F1A2E124F186F129118B11AD32B
:1006260010F41915133719571B79019A1A39125AEA
:10063600187A129C1ABC18DD130219221344196485
:100646001B8600271A4610671A8812A918A91ACB02
:1006560010EC1B0D112E1B4F1970039218301252FD
:100666001872129418B41AD612F7191713391959A1
:100676001B7B099C1A3C105D1A7E10A21AC31AE451
:1006860011051B26134719671B89002A1A49106A88
:100696001A8B108C18AD1ACF10F01B1113321B5287
:1006A60019730395183312551875129718B718D978
:1006B60012FB191B133D195D1B8102221A3E1262A1
:1006C600188212A418C418E613081908132A194A1E
:1006D6001B6C0B8D1A2C104D1A6E108F1AB018D178
:1006E60010F31B14113519561B7803991A37105835
:1006F6001A79129A18BA1ADC10FD192111421963D7
:100706001B850226184412661A8610A71AC818C92D
:1007160012EB190B132D194D1B6F01901A2F105048
:100726001A7110921AB31AD410F51B1611371B58EA
:1007360019790B9B183A125C187C129E18C118E2A4
:1007460013041B2411451B661987022918471269D1
:100756001889108B1AAC18CD12EF1B0F11301B51D4
:100766001B7201931A3210531A74109518B61AD8C0
:1007760010F91B1A113B1B5C1B7D039E183C125E75
:10078600188110A218C31AE511061B2711481B6908
:100796001B8A0A2B184A126C186C128E18AE18D0C7
:1007A60010F21B1311341B551B760397183512577D
:1007B6001A7710981AB918DA10FC1B1D11411B6222
:1007C6001B8300241A431264188412A618C61AE85A
:1007D60010E91B0A112B194C1B6E038F182D124F93
:1007E6001A6F10901AB118D212F41914133619563A
:1007F6001B7809991A39105A1A7B109C1ABD1ADEF1
:1008060013021922134419641B860027184612681E
:10081600188812AA1AAA18CB12ED190D132F1B4FFE
:1008260019700392183010521A7310941AB518D60C
:1008360012F81B1811391B5A1B7B019C1A3B105CC2
:100846001A7D10A11AC218E31305192513471B6751
:100856001B8808291A49106A1A8B108C18AD18CFF4
:1008660012F1191113331B531B7401951A341255C7
:100876001875129718B718D910FB1B1C113D1B5E73
:100886001B8102231A411262188212A418C418E6A8
:1008960013081908112A1B4B196C038E1A2C124DBA
:1008A600186D128F18AF1AD110F21B131134195587
:1008B6001B7709981A3812591879129B1ABB18DC3B
:1008C60012FE1921114219631B8500261A4510666E
:1008D6001A8712A818C81ACA12EB190B132D194D2C
:1008E6001B6F0190182F12511871129318B31AD555
:1008F60012F6191613381B581979039B1839105B11
:100906001A7C109D1ABE1AE211031B2413451B659F
:1009160019860A28184712691889108B1AAC18CD3F
:1009260010EF1B1013311B51197203941A32105316
:100936001A74109518B618D812FA191A133C1B5CBB
:10094600197D02211A3D125E188110A218C318E5FE
:1009560013071927134919691B8B022C1A4A104BC6
:100966001A6C108D1AAE18CF10F11B1211331B54CE
:080B80008F088D098A0A8B0B16
:100B8800AE0AAF0B7C007D0C120ED2EF2509FFECEC
:100B98003EFEEF25E0FDEE33FC74942DF58274449F
:100BA8003CF583E493F519740193F51AE51A541F7B
:100BB800F515AE19AF1AEF7805CEC313CE13D8F9D1
:100BC800540FF516AE19AF1AEEC3135401241DF5D0
:100BD80017AE19AF1AEE13135401F51874962DF5C4
:100BE8008274443CF583E493F519740193F51AE58E
:100BF8001A541FFDAE19AF1AEF7805CEC313CE13E2
:100C0800D8F9540FFFE51565177061ED6402705C43
:100C1800E508B4010DAB0CAA0DA90EE515120EC01E
:100C2800802AE508B41F15AB0CAA0DA90E74011291
:100C38000EC0AB0FAA10A911EF020CC5E50814AB42
:100C48000CAA0DA90E120EC0E518600AAB0FAA1067
:100C5800A911E5168067E516B40C047F018004E548
:100C68001604FFAB0FAA10A911EF8051E50825154E
:100C780014AB0CAA0DA90E120EC0AB0CAA0DA90E2E
:100C8800120E7AFFD39517500AAB0FAA10A911E5D7
:100C980016802AAB0CAA0DA90EC3EF9517120EC029
:100CA800E51604C39518AB0FAA10A911120EC0AB14
:100CB8000FAA10A911120E7AB40D057401120EC0F4
:100CC800AB0FAA10A911120E7AFFE509C39F400DB8
:100CD800AB12AA13A914E50A850BF08011E50B24C1
:100CE800FFFFE50A34FFAB12AA13A9148FF0120F05
:010CF8006F8C
:010CF90022D8
:10152000020976E493A3F8E493A34003F68001F262
:1015300008DFF48029E493A3F85407240CC8C333CC
:10154000C4540F4420C8834004F456800146F6DF9B
:10155000E4800B01020408102040809016CBE47E4A
:10156000019360BCA3FF543F30E509541FFEE49390
:10157000A360010ECF54C025E060A840B8E493A357
:10158000FAE493A3F8E493A3C8C582C8CAC583CA82
:10159000F0A3C8C582C8CAC583CADFE9DEE780BE3A
:0116DE00000B
:100E5800C2D530F707B2D563F0FF05F030E70CB222
:100E6800D5F4048463F0FF05F080018430D502F4E2
:020E7800042252
:100E7A00BB010689828A83E0225002E722BBFE0276
:090E8A00E32289828A83E49322A9
:100E9300BB010CE58229F582E5833AF583E0225014
:100EA30006E92582F8E622BBFE06E92582F8E2225E
:0D0EB300E58229F582E5833AF583E4932278
:100EC000BB010689828A83F0225002F722BBFE0111
:020ED000F3220B
:100ED200EF8DF0A4A8F0CF8CF0A428CE8DF0A42E34
:020EE200FE22EE
:100EE400BC000BBE0029EF8DF084FFADF022E4CCF2
:100EF400F875F008EF2FFFEE33FEEC33FCEE9DECBB
:100F0400984005FCEE9DFE0FD5F0E9E4CEFD22ED00
:100F1400F8F5F0EE8420D21CFEADF075F008EF2F4A
:100F2400FFED33FD4007985006D5F0F222C398FD3B
:050F34000FD5F0EA22D8
:100F3900C2D5EC30E709B2D5E4C39DFDE49CFCEED3
:100F490030E715B2D5E4C39FFFE49EFE120EE4C359
:100F5900E49DFDE49CFC8003120EE430D507C3E454
:060F69009FFFE49EFE2242
:100F6F00BB010A89828A83F0E5F0A3F0225006F7CD
:0F0F7F0009A7F01922BBFE06F3E5F009F31922CA
:0C0F8E00A42582F582E5F03583F583226E
:00000001FF
